:020000040800F2
:1000000000200020C50B0008B90B0008BB0B00083E
:1000100000000000000000000000000000000000E0
:10002000000000000000000000000000BD0B000800
:100030000000000000000000BF0B0008C10B00081A
:10004000150C0008150C0008150C0008150C00080C
:10005000150C0008150C0008150C0008150C0008FC
:10006000150C0008150C0008150C0008150C0008EC
:10007000150C0008150C0008150C0008150C0008DC
:10008000150C0008150C000800000000ED08000821
:10009000150C0008150C0008150C0008150C0008BC
:1000A000150C0008150C0008150C0008150C0008AC
:1000B000150C000800000000150C000800000000EE
:1000C000002243088B4274D303098B425FD3030A97
:1000D0008B4244D3030B8B4228D3030C8B420DD3AA
:1000E000FF22090212BA030C8B4202D31212090238
:1000F00065D0030B8B4219D300E0090AC30B8B4276
:1001000001D3CB03C01A5241830B8B4201D38B0323
:10011000C01A5241430B8B4201D34B03C01A5241C8
:10012000030B8B4201D30B03C01A5241C30A8B420B
:1001300001D3CB02C01A5241830A8B4201D38B02F6
:10014000C01A5241430A8B4201D34B02C01A52419A
:10015000030A8B4201D30B02C01A5241CDD2C3090C
:100160008B4201D3CB01C01A524183098B4201D388
:100170008B01C01A524143098B4201D34B01C01A73
:10018000524103098B4201D30B01C01A5241C308EB
:100190008B4201D3CB00C01A524183088B4201D35A
:1001A0008B00C01A524143088B4201D34B00C01A46
:1001B0005241411A00D20146524110467047FFE7B2
:1001C00001B5002000F0F0F802BDC0460029F7D0CC
:1001D00076E7704703460B437FD4002243088B42E7
:1001E00074D303098B425FD3030A8B4244D3030BBE
:1001F0008B4228D3030C8B420DD3FF22090212BA83
:10020000030C8B4202D31212090265D0030B8B42FE
:1002100019D300E0090AC30B8B4201D3CB03C01AE8
:100220005241830B8B4201D38B03C01A5241430BC3
:100230008B4201D34B03C01A5241030B8B4201D3B3
:100240000B03C01A5241C30A8B4201D3CB02C01A1E
:100250005241830A8B4201D38B02C01A5241430A96
:100260008B4201D34B02C01A5241030A8B4201D385
:100270000B02C01A5241CDD2C3098B4201D3CB012C
:10028000C01A524183098B4201D38B01C01A5241DB
:1002900043098B4201D34B01C01A524103098B42DF
:1002A00001D30B01C01A5241C3088B4201D3CB00CA
:1002B000C01A524183088B4201D38B00C01A5241AD
:1002C00043088B4201D34B00C01A5241411A00D25D
:1002D00001465241104670475DE0CA0F00D04942C6
:1002E000031000D34042534000229C4603098B4236
:1002F0002DD3030A8B4212D3FC22890112BA030ABE
:100300008B420CD3890192118B4208D3890192113F
:100310008B4204D389013AD0921100E08909C309C4
:100320008B4201D3CB01C01A524183098B4201D3C6
:100330008B01C01A524143098B4201D34B01C01AB1
:10034000524103098B4201D30B01C01A5241C30829
:100350008B4201D3CB00C01A524183088B4201D398
:100360008B00C01A5241D9D243088B4201D34B00B3
:10037000C01A5241411A00D20146634652415B10F5
:10038000104601D34042002B00D5494270476346D6
:100390005B1000D3404201B5002000F005F802BD1B
:1003A0000029F8D016E770477047C04610B5064CD4
:1003B0002378002B07D1054B002B02D0044800E026
:1003C00000BF0123237010BD0800002000000000C2
:1003D000600C0008044B10B5002B03D003490448FF
:1003E00000E000BF10BDC046000000000C0000206F
:1003F000600C000882B0430018180023019304E049
:10040000C046C046019B01330193019B8342F7D351
:1004100002B0704770B51420FFF7ECFF0A4CA369D7
:1004200080252D022B43A3611420FFF7E3FFA2696F
:1004300080231B061343A3611420FFF7DBFFA3698E
:100440001D43A56170BDC0460008004810B50400FA
:10045000454A91698023DB010B43936143B2002B32
:1004600046DB9022D205916980231B060B439361E2
:10047000630645D59022D205916980235B010B4329
:100480009361A30644D5394A916980239B000B43AD
:100490009361E30643D5354A916980235B000B43A2
:1004A0009361FFF7B7FF230740D59022D2059169EA
:1004B00080231B020B43936163073FD59022D20533
:1004C000916980235B010B439361A3073ED5274AC3
:1004D000916980239B000B439361E4073DD5234A38
:1004E000916980235B000B439361FFF793FF10BD7D
:1004F0009022D205916980231B020B439361B7E7D9
:100500009022D205916980235B050B439361B8E784
:10051000164A916980239B040B439361B9E7134A00
:10052000916980235B040B439361BAE79022D20563
:10053000916980231B060B439361BDE79022D2058E
:10054000916980235B050B439361BEE7074A91697C
:1005500080239B040B439361BFE7044A9169802386
:100560005B040B439361C0E70008004800040048A7
:1005700010B50400474A91698023DB050B43936162
:1005800043B2002B49DB9022D205916980231B06E0
:100590000B439361630648D59022D205916980236D
:1005A0005B010B439361A30647D53B4A91698023C6
:1005B0009B000B439361E30646D5374A916980233C
:1005C0005B000B439361FFF725FF230743D5902280
:1005D000D205916980231B020B439361630742D5C7
:1005E0009022D205916980235B010B439361A3079D
:1005F00041D5294A916980239B000B439361E4070D
:1006000040D5254A916980235B000B439361FFF736
:1006100001FF2248FFF7EEFE10BD9022D20591693E
:1006200080231B020B439361B4E79022D2059169AA
:1006300080235B050B439361B5E7174A91698023DB
:100640009B040B439361B6E7134A916980235B04D3
:100650000B439361B7E79022D205916980231B0673
:100660000B439361BAE79022D205916980235B0521
:100670000B439361BBE7084A916980239B040B43BA
:100680009361BCE7044A916980235B040B43936147
:10069000BDE7C0460008004800040048B80B000051
:1006A00010B51B4B5969802292020A435A6159695D
:1006B0008022D2020A435A615969802212030A43F6
:1006C0005A619022D20511688223DB050B43136027
:1006D000104A1168A023DB020B4313600E4A116815
:1006E000A023DB050B4313600C48FFF783FE332088
:1006F000FFF73EFF3220FFF73BFF0C20FFF738FFEC
:100700002820FFF735FF0120FFF732FF10BDC0465C
:100710000010024000040048000800483075000046
:100720000C4A516980239B020B4353619023DB05E4
:100730001A6803210A431A601A6809310A431A60C9
:100740001A6824310A431A601A6810310A431A6081
:100750007047C04600100240154A51698023DB02F1
:100760000B435361134B19688022D2000A431A606D
:100770001968802252010A431A6019688022D20146
:100780000A431A601968802252030A431A605A69A0
:1007900020218A435A615A6920318A435A615A6931
:1007A00040318A435A615A6903490A405A61704785
:1007B0000010024000040048FFFBFFFF10B50F4B84
:1007C0009A6801218A439A6098688022120602433F
:1007D0009A600B4884698022920022438261DA6821
:1007E000DA60DA6807480240DA609A680A439A6079
:1007F000024B1B68DB07FBD510BDC046002401403F
:1008000000100240FFDFFFFFF0B5C64600B507004D
:10081000FA218900FFF754FCC5B2AC05641BA401A2
:10082000641964006419E40038196421FFF7D2FCEC
:100830000300C6B2FF20184043061B1A9B001B187A
:10084000DB001B1A9B00FB18E0180A21FFF7C2FC13
:10085000C3B29846B300F3185C01E41A3419434656
:100860005B0142469B1A9B009B1A5B00E418E4194B
:10087000E4B218236B43DBB2E418E4B20220FFF7C2
:1008800077FE3035E8B2FFF7E1FD3036F0B2FFF722
:10089000DDFD40463030C0B2FFF7D8FD3034E0B265
:1008A000FFF7D4FD80BCB846F0BD00000B4AD1690B
:1008B00080235B000B43D361094B7A229A62094A79
:1008C000DA62DA6801210A43DA60074A802000030D
:1008D00010601A680A431A607047C0460010024050
:1008E0000020004010FE000000E100E0104B5B69BA
:1008F0005B0511D49022D205536908210B43536143
:100900000B4A51698023DB000B435361094A136989
:1009100001218B43136170479022D205536908214E
:100920008B435361024A536903490B405361EDE71E
:100930000004004800200040FFFBFFFF0A4B5B69FA
:100940005B050AD5094B1A88094B1B889A4205D2C8
:10095000054A536980210B4353617047024A53692A
:1009600080218B435361F8E70004004828000020F1
:1009700000000020134B5B695B0513D5124B1A88EE
:10098000124B1B889A420ED20E4A536940210B43E8
:1009900053610F4B1B78002B04D00E4A13683F396C
:1009A0008B4313607047074A536940218B4353615F
:1009B000074B1B78002BF5D0064A13683F390B43D1
:1009C0001360EFE70004004826000020020000202A
:1009D00006000020002000400A4B5B695B050AD539
:1009E000094B1A88094B1B889A4205D2054A53695C
:1009F00020210B4353617047024A536920218B43E6
:100A00005361F8E7000400482400002000000020A3
:100A100010B5FFF785FEFFF79FFEFFF7CFFEFFF74C
:100A20003FFEFFF743FF2FE0FFF7EEFE46E0FFF744
:100A300085FF52E0554A536980218B4353614CE056
:100A4000FFF7E2FE63E0FFF795FF514B9A6A04213E
:100A50000A439A629A680A439A604D4B1B685B0787
:100A6000FBD54B4B186C80B24A4A10809A6A04211D
:100A70008A439A62484B1B78052B71D0474B1B78F1
:100A8000002B70D0FFF7A8FF414B9A6A01210A435F
:100A90009A629A6803310A439A603D4B1B685B0770
:100AA000FBD53B4B186C80B23D4A10809A6A0121FD
:100AB0008A439A62384B1B78072BB5D0374B1B788B
:100AC000002BB4D1364B1A88364B1B889A42B1D2D0
:100AD0002E4A536980210B4353612D4B9A6A0221A0
:100AE0000A439A629A6802310A439A60284B1B684B
:100AF0005B07FBD5264B186C80B22B4A10809A6A94
:100B000002218A439A62244B1B78062B98D0234BF0
:100B10001B78002B97D1244B1A88244B1B889A42B0
:100B20000ED21A4A536940210B435361204B1B7864
:100B3000002B8AD01F4A13683F398B43136084E728
:100B4000124A536940218B435361194B1B78002B88
:100B500000D17AE7174A13683F390B43136074E7F3
:100B6000FFF752FE8AE70B4B1A880E4B1B889A42FE
:100B700005D2064A536920210B43536184E7034A97
:100B8000536920218B4353617EE7C046000400482F
:100B90000024014024000020040000200500002063
:100BA0002800002000000020260000200200002075
:100BB0000600002000200040FEE7FEE77047704777
:100BC000704770470D488546FFF7FBFF0C480D49FD
:100BD0000D4A002302E0D458C4500433C4188C4298
:100BE000F9D30A4A0A4C002301E013600432A242FE
:100BF000FBD300F011F8FFF70BFFFEE70020002009
:100C00000000002008000020800C000808000020E0
:100C10002C000020FEE7000070B500260C4C0D4DA6
:100C2000641BA410A64209D1002600F019F80A4C52
:100C30000A4D641BA410A64205D170BDB300EB5849
:100C400098470136EEE7B300EB5898470136F2E7D4
:100C5000780C0008780C00087C0C0008780C000860
:100C6000F8B5C046F8BC08BC9E467047F8B5C0460B
:080C7000F8BC08BC9E46704769
:040C7800D503000898
:040C7C00AD030008BC
:080C8000600960090601010092
:0400000508000BC51F
:00000001FF
